:020000040040BA
:10000000E82C4020D10B4000CF0B4000CF0B40002C
:10001000CF0B4000CF0B4000CF0B40000000000092
:10002000000000000000000000000000C10F4000C0
:10003000CF0B40000000000061104000C5104000E0
:10004000CF0B4000CF0B4000CF0B4000CF0B400048
:10005000CF0B4000CF0B4000CF0B4000CF0B400038
:10006000CF0B400000000000ED08400001094000F7
:1000700015094000CF0B4000CF0B4000CF0B4000D4
:10008000290940003D094000CF0B4000CF0B400044
:10009000CF0B4000CF0B4000CF0B4000CF0B4000F8
:1000A000CF0B4000CF0B4000CF0B4000CF0B4000E8
:1000B000CF0B4000D9064000CF0B4000CF0B4000D3
:1000C000CF0B4000CF0B4000CF0B4000CF0B4000C8
:1000D000CF0B4000CF0B4000CF0B4000CF0B4000B8
:1000E000ED064000CF0B4000CF0B4000CF0B40008F
:1000F000CF0B4000CF0B4000CF0B4000CF0B400098
:10010000CF0B4000CF0B4000CF0B4000CF0B400087
:10011000CF0B4000000000000000000000000000C5
:10012000CF0B4000CF0B4000CF0B4000CF0B400067
:10013000CF0B4000CF0B4000CF0B4000CF0B400057
:10014000CF0B4000CF0B4000CF0B4000CF0B400047
:10015000CF0B4000CF0B4000CF0B4000CF0B400037
:10016000CF0B4000CF0B400010B5054C237833B9BE
:10017000044B13B10448AFF300800123237010BD7A
:10018000B809402000000000886940000C4B43B1D2
:100190000C480D4910B5AFF300800C48036823B933
:1001A00010BD0A48036833B97047094B002BF7D0DC
:1001B000BDE810401847064B002BF5D0184700BF8C
:1001C0000000000088694000BC09402088694000A8
:1001D0000000000010B51048104B98473E21002049
:1001E0000F4B98470F4CA0470028FCD00E4B984768
:1001F0000E4A0F4B9A620F4CA0470028FCD00220F9
:100200000D4B984700200D4B98470D4B98470248DF
:10021000024B984710BD00BF80D1F008A50D4000EB
:10022000ED094000410A4000510A4000013F1820FA
:1002300000060E40610A4000510940008909400053
:10024000990C40002DE9F04180B90C469046002AF7
:100250000FDD8F18084E094D306821462B689847EE
:100260000134BC42F8D14046BDE8F0814FF0FF3880
:10027000F9E78046F7E700BFE40B4020DC0B4020A5
:100280000138022815D82DE9F0410E4614469AB1DE
:100290000D46DFF838800C4FD8F8000015F8011B28
:1002A0003B68984700280ADBA81B013CF4D1BDE855
:1002B000F0814FF0FF3070471046BDE8F0814FF0FD
:1002C000FF30BDE8F08100BFE00B4020E40B402090
:1002D000F8B54FF400425B4B5A60BFF34F8FBFF34A
:1002E0006F8F594B0021C3F85012BFF34F8FBFF3EC
:1002F0006F8F5A6942F400325A61BFF34F8FBFF3D8
:100300006F8FC3F88410BFF34F8FD3F88070C7F39B
:100310004E35C7F3C9076E014FEA877C43F6E07E8E
:100320001C4606EA0E0062463B4640EA0201C4F85B
:100330006012013B02F14042B3F1FF3FF5D1013DB4
:10034000203EB5F1FF3FECD1BFF34F8F3E4B5A69D2
:1003500042F480325A61BFF34F8FBFF36F8F3B4A35
:100360003B495160A1F580715160BFF34F8FBFF3DE
:100370006F8FD3F8902222F00102C3F89022D3F8B5
:10038000942222F00102C3F89422BFF34F8FBFF3EF
:100390006F8F0A202F4CA0470B20A0470C20A047AE
:1003A0001020A0471120A0472B4B4FF480721A61F8
:1003B000C3F8A0201A63A3F580634FF400625A616A
:1003C000C3F8A0205A66C3F890205A651A62C3F891
:1003D0008420196F21F400611967596F21F40061BD
:1003E0005967C3F8C020C3F8D420C3F8B0204FF435
:1003F00000121A66C3F890205A655A62C3F880202A
:10040000196F21F400111967596F21F40011596710
:100410005A60124AD2F8143143F01003C2F8143172
:100420000F4B10221A66C3F890205A655A62C3F81F
:100430008020196F11431967596F114359675A602A
:10044000F8BD00BF50180E4000ED00E0000C0E405B
:100450000C08005A710A400000120E40008008404B
:1004600000100E4070B582B0026BC36A1340019356
:1004700000241C4E1C4DA84214BF00200120050181
:100480000BE00E2C1ED8019A04F10C0101238B40C5
:10049000134210D10134102C22D00B2CF1D8019A28
:1004A0000123A3401342F5D02B1956F82330002B1B
:1004B000F0D09847EEE72B1956F82330002BE9D0FF
:1004C0009847E7E7019A04F10F0101238B4013429B
:1004D000E0D02B1956F82330002BDBD09847D9E712
:1004E00002B070BDE80B40200040064030B4046EFE
:1004F00001238B4024EA03041578002D08BF002354
:1005000023430366446D4B000321994024EA010410
:10051000517899402143416530BC70474B780A7847
:10052000134303678A884B8843EA02434367704753
:1005300000220260084B4360084B83604FF4802325
:10054000C36002230374012343748374C27403756C
:1005500043758375704700BF00A3E111808D5B0078
:10056000002303700123437070470023037020238E
:100570004370FF23438040F6FF7383807047000081
:10058000026B12F0807201D01920704710B4012361
:100590000360CB7C002B18BF4FF000424B688C6887
:1005A000B3FBF4F3013B1B029BB2CC6844F40004A0
:1005B00023430C7C240604F0706423434C7C240702
:1005C00004F040542343134343600B7D002B14BFBE
:1005D0004FF0807300230A6813434A7D002A14BF3A
:1005E0004FF000720022134383608B7D1B0203F4E3
:1005F000407343F00C03C0F894300F4B984206D080
:100600000E4B98420DD000205DF8044B70470C4B08
:1006100003F14001002243F8042F8B42FBD100205C
:10062000F2E7084B03F14001002243F8042B8B4210
:10063000FBD10020E8E700BF00C0034000400640B7
:10064000E40B4020280C40200C4B994207D00B298A
:100650000BD806D0012303FA01F1416270474362CF
:1006600070474FF40063436270470E2994BF0C310A
:100670000F31012303FA01F141627047FF0F004778
:1006800038B5114CA0420CBF102400240C440F4D6F
:1006900045F824200AD10E4A4FF48074C2F88441F0
:1006A0005B01DBB282F82833546009E0084A4FF05E
:1006B0000054C2F880415B01DBB282F81D33146044
:1006C000044B984738BD00BF00400640E80B40206F
:1006D00000E100E04906400008B50248024B984797
:1006E00008BD00BF00C003406504400008B50248D3
:1006F000024B984708BD00BF00400640650440001B
:1007000000B583B0134B98420CBF28201D20124B1C
:100710009847124B9B78FF2B1AD0EFF31083B3FA54
:1007200083F35B09019372B6BFF35F8F00220C4B1A
:100730001A700199094A93780133937029B1012203
:10074000074B1A70BFF35F8F62B603B05DF804FB0E
:10075000FEE700BF00400640710A4000D40B402075
:10076000000040200AB90166704741667047016386
:1007700070474163704721F00061B1F1405F05D1DE
:10078000836B134214BF012000207047C36BF8E74E
:10079000416412F0010F0DD1016612F00A0F0BD067
:1007A000016212F0020F09D112F0080F08D0C0F850
:1007B000841005E04166F0E74162F2E7C0F880107E
:1007C00041610160704710B4019C41644CB90166FD
:1007D0004BB101654AB94163016101605DF8044BA9
:1007E00070474166F4E74165F4E70163F4E712F00E
:1007F000100F12D0C0F8B01012F0200F07D0C0F8C0
:10080000D41012F0400F05D0C0F8C0107047C0F8E7
:10081000D010F6E7C0F8C4107047C0F8B4107047A5
:1008200001647047C06C7047806C70472DE9F041DF
:10083000044688460E4B9847054620460D4B984780
:10084000054013D00C4C04F1600603E0B4420DD017
:1008500010345DB120684045F8D161682942F5D077
:10086000E3689847636825EA0305EFE7BDE8F08190
:100870002508400029084000D4094020F8B5184C4C
:100880002668062E2AD84FF0000C6446154F04E067
:100890000134E4B2A446A64209D3A64625017D59F7
:1008A0008D42F5D107EB04156D689542F0D10D4DE1
:1008B0004FEA0E1E05EB0E0445F80E106260A360B1
:1008C0000699E1600136664505D011461A46064B89
:1008D00098470020F8BD02490E60F6E70120F8BDF8
:1008E000440A4020D4094020EF07400008B50A21FF
:1008F0000148024B984708BD000E0E402D084000ED
:1009000008B50B210148024B984708BD00100E4066
:100910002D08400008B50C210148024B984708BD3E
:1009200000120E402D08400008B510210148024B6E
:10093000984708BD00140E402D08400008B511214D
:100940000148024B984708BD00160E402D08400094
:10095000032811D0042812D002280CBF4FF4807154
:100960000021084A136B23F440730B431363936E07
:1009700013F0080FFBD070474FF44071F1E74FF4CC
:100980000071EEE700060E40174A136B23F0700368
:1009900018431063936E13F0080F0AD14FF480537D
:1009A00011498A6E12F0080F03D1013BF9D10120E1
:1009B00070470D4A136B23F0030343F002031363E4
:1009C000936E13F0080F0AD14FF4805306498A6ED4
:1009D00012F0080F05D1013BF9D10120704700202A
:1009E00070470020704700BF00060E40A0B90E48B7
:1009F000036A090289B20D4A1A400D4B1343194389
:100A000001620246936E13F0010FFBD0064A116A91
:100A1000084B0B431362704703490B6A064A1A409E
:100A2000064B13430B62704700060E40FCFFC8FFE5
:100A30000100370000003701FCFFC8FE020037014B
:100A4000024B986E00F48030704700BF00060E40E5
:100A50004FF00052014B9A62704700BF00060E40F3
:100A6000024B986E00F00200704700BF00060E4077
:100A700000F07F00054BC3F80C01D3F80C2142F0C5
:100A80001022C3F80C210020704700BF00060E4062
:100A9000436913F0020F02D0C161002070470120AA
:100AA0007047436913F0010F03D083690B70002076
:100AB00070470120704710B40B01934214D9C9004C
:100AC0004B0803EBC202B2FBF1F2D3085C1E4FF6F7
:100AD000FE718C4201D9012017E0416841F40021E8
:100AE00041600CE0012010E0590801EBC202B2FBAA
:100AF000F3F2D3085C1E4FF6FE718C42F2D812045A
:100B000002F4E0221A43026200205DF8044B7047B1
:100B1000084BC0F8E43000234360436283628823BB
:100B20000360242303604FF4807303604FF40023B9
:100B3000036070470041535570B505460C46164694
:100B40000F4B984700220F4B1A60A4B13246216820
:100B500028460D4B9847024678B96368A1680B4355
:100B600021690B43E1680B4306490B6069680B433D
:100B70006B60104670BD0122FBE70122F9E700BF60
:100B8000110B4000480A4020B70A40004023036090
:100B900070471023036070474069C0F340007047FE
:100BA000436913F0020F04D0C1F30801C1610020B2
:100BB000704701207047436913F0010F05D0836926
:100BC000C3F308030B600020704701207047FEE765
:100BD00000B583B0254B264A9A4210D0254B234AB4
:100BE0009A420CD2013B9B1A23F0030304331344B3
:100BF0001F4951F8040B42F8040B9A42F9D11E4BDD
:100C00001E4A9A420AD2013B9B1A23F00303043383
:100C10001344002142F8041B9342FBD1184A194B9C
:100C200023F07F039360EFF31083B3FA83F35B0940
:100C3000019372B6BFF35F8F0022134B1A700199B4
:100C4000124A136843F470031360BFF34F8FBFF36E
:100C50006F8F29B101220C4B1A70BFF35F8F62B600
:100C60000B4B98470B4B9847FEE700BF0000402016
:100C700088694000B8094020E40C4020B8094020B1
:100C800000ED00E0000040000000402088ED00E0A2
:100C9000E9364000613540003B4B1B6B03F003031A
:100CA000012B1DD083B1022B36D0374B1B6B03F0C9
:100CB0007003702B5FD0344B1A6B3449C2F30212AD
:100CC0000B68D3400B607047314B5B6913F0800FAA
:100CD00014BF4FF400424FF4FA422C4B1A60E4E781
:100CE000294B1B6A13F0807F03D02A4A274B1A60D6
:100CF000DBE7294A254B1A60234B1B6A03F070037C
:100D0000102B05D0202BD0D1224A204B1A60CCE7E3
:100D1000224A1E4B1A60C8E71B4B1B6A13F0807FE8
:100D200016D01C4A194B1A60174B1B6B03F00303B8
:100D3000022BBAD1144A916A926A1448C1F30A414B
:100D4000036801FB0333D2B2B3FBF2F30360ACE7F9
:100D5000114A0E4B1A600C4B1B6A03F07003102BE8
:100D600005D0202BE0D10B4A084B1A60DCE70B4A78
:100D7000064B1A60D8E7054A13680949A1FB03131B
:100D80005B081360704700BF00060E40040040205F
:100D900010180E40001BB70000093D0000127A0039
:100DA000ABAAAAAA164B984213D9164B984215D94A
:100DB000154B984216D9154B984217D9144B9842A7
:100DC00018D9144B984294BF134A144A144B1A6012
:100DD00070474FF08062124B1A607047114A104BF7
:100DE0001A607047104A0E4B1A6070470F4A0C4B3E
:100DF0001A6070474FF00422094B1A60704700BF19
:100E0000BFF35E017FE7BD023FDB1C04FFCE7B0525
:100E1000BFC2DA067FB639080005000400060004E8
:100E2000000C0E4000010004000200040003000456
:100E30000A4B1B6853B1094B1B681A1808499142A9
:100E400008DB1046054A106018467047054A034BF8
:100E50001A60F0E74FF0FF30704700BF4C0A4020A7
:100E6000FCFF4520E82E40204FF0FF3070474FF444
:100E700000534B60002070470120704700207047EE
:100E800000F1080343604FF0FF328260C3600361EA
:100E900000230360704700230361704743684B6081
:100EA0009A688A609A6851609960086103680133A2
:100EB0000360704730B40D68B5F1FF3F02D000F118
:100EC000080202E0026904E01A4653681C68A54261
:100ED000FAD253684B6099608A6051600861036878
:100EE0000133036030BC70470369426881689160D8
:100EF0008268416851605A68904206D000220261BF
:100F00001A68013A1A601868704782685A60F5E7F3
:100F100082B0002301930F4B1B68B3F1FF3F0AD04F
:100F20004FF0800372B683F31188BFF36F8FBFF366
:100F30004F8F62B6FEE74FF0800372B683F31188DD
:100F4000BFF36F8FBFF34F8F62B6019B002BFCD0B6
:100F500002B070470800402008480068006880F32D
:100F600008884FF0000080F3148862B661B6BFF3C2
:100F70004F8FBFF36F8F00DF00BF000008ED00E070
:100F8000DFF80C00016841F4700101607047000057
:100F900088ED00E04FF0807340F8043C21F001013F
:100FA00040F8081C054B40F80C3C40F8202C6FF032
:100FB000020340F8243C4438704700BF110F400042
:100FC000074B19680868B0E8F04F80F30988BFF351
:100FD0006F8F4FF0000080F311887047AFF30080EF
:100FE000580A40204FF0800372B683F31188BFF394
:100FF0006F8FBFF34F8F62B60B4A136801331360D4
:10100000012B0FD1094B1B6813F0FF0F0AD04FF0D3
:10101000800372B683F31188BFF36F8FBFF34F8FD6
:1010200062B6FEE7704700BF0800402004ED00E014
:101030000A4B1B6853B94FF0800372B683F31188D3
:10104000BFF36F8FBFF34F8F62B6FEE7013B034ADA
:1010500013600BB983F31188704700BF080040206C
:10106000EFF30980BFF36F8F154B1A681EF0100F56
:1010700008BF20ED108A20E9F04F10602DE909002B
:101080004FF0800072B680F31188BFF34F8FBFF32B
:101090006F8F62B601F0E6F94FF0000080F311881F
:1010A00009BC19680868B0E8F04F1EF0100F08BFBF
:1010B000B0EC108A80F30988BFF36F8F704700BFD0
:1010C000580A402008B54FF0800372B683F31188A8
:1010D000BFF36F8FBFF34F8F62B6054B984718B1C0
:1010E0004FF08052034B1A60002383F3118808BD30
:1010F000A921400004ED00E0054B00221A600549DB
:101100000A600549054A116007221A60704700BF4E
:1011100010E000E018E000E0BF27090014E000E064
:1011200010B582B02E4B1A78D2B20192FF221A70FB
:101130001B78DBB28DF803309DF8033003F0800399
:10114000284A13700722284B1A609DF8033013F0C9
:10115000800F12D0062300E00B469DF803205200BA
:10116000D2B28DF803209DF80320591E12F0800F93
:10117000F2D11D4A1360042B0AD04FF0800372B6DF
:1011800083F31188BFF36F8FBFF34F8F62B6FEE713
:101190001B0203F4E063144A1360019BDBB2104AA4
:1011A0001370124B1A6842F460021A601A6842F017
:1011B00060421A600E4B984700240E4B1C600E4B89
:1011C00098470E4A136843F0404313600C4B98470E
:1011D0000C4B98470C4B9847204602B010BD00BFFF
:1011E00000E400E0500A4020540A402020ED00E0D6
:1011F000F910400008004020810F400034EF00E06B
:10120000590F400065244000110F4000EFF30583A3
:101210000F2B11D9124A9B5CDBB2124A12789A4208
:101220000AD94FF0800372B683F31188BFF36F8F32
:10123000BFF34F8F62B6FEE70B4B1B6803F4E0630E
:101240000A4A126893420AD94FF0800372B683F3B8
:101250001188BFF36F8FBFF34F8F62B6FEE7704701
:10126000F0E300E0500A40200CED00E0540A40207A
:1012700010B50446064B98472046064B984704464F
:10128000054B98470CB1204610BD044B9847FAE730
:101290008D21400061374000F12240004B35400075
:1012A00048B110B50446044B98472046034B984775
:1012B000034B984710BD70478D21400071374000A7
:1012C000F122400010B50446044B9847A46B044B30
:1012D0009847B4FA84F0400910BD00BFE50F400004
:1012E0003110400070B504461646856B026C52B949
:1012F0000368002B2AD14068174B9847002363608E
:101300000135A56370BD6EB98068144B9847A3681A
:10131000226C1344A3606268934219D32368A360CC
:101320000020EDE7C0680D4B9847236C5B42E268F4
:101330001A44E26021688A4202D262681344E36080
:1013400045B1022E06D1013D0020D9E70020D7E7A4
:101350000020D5E70020D3E7E9274000E13C40002A
:1013600070B582B00190846C74B1A26BE36B9A4249
:1013700015D34FF0800372B683F31188BFF36F8FDC
:10138000BFF34F8F62B6FEE74FF0800372B683F370
:101390001188BFF36F8FBFF34F8F62B6FEE7A26B6A
:1013A000934203D80026304602B070BD0A4694F836
:1013B00045506DB201A920460A4B98470646B5F143
:1013C000FF3F0AD1636A002BEDD004F12400064BE5
:1013D0009847002818BF0126E5E76B1C5BB284F82C
:1013E0004530E0E7E5124000B9254000026C72B1DB
:1013F00010B50346C4681444C4604068844201D3F5
:101400001868D8600846D968014B984710BD7047E6
:10141000E13C40002DE9F0410546234B984795F803
:10142000454064B2002C19DD204EDFF88C80204F3F
:1014300008E06B6A93B105F12400B84760B9013C3C
:1014400064B25CB1AB6C002BF3D000212846B047EE
:101450000028F4D0C047F2E7C047F0E7FF2385F843
:101460004530144B9847104B984795F8444064B268
:10147000002C12DD2B6983B105F110070C4EDFF84B
:10148000388004E0013C64B23CB12B692BB1384692
:10149000B0470028F6D0C047F4E7FF2385F8443072
:1014A000044B9847BDE8F081E50F40006113400010
:1014B000B925400031104000FD26400038B530B35A
:1014C00004460D461D4B98472268216CE36B03FBD5
:1014D00001F3D01860600020A063A2605B1A13447F
:1014E000E360FF2384F8443084F84530D5B923699C
:1014F000FBB104F11000124B9847D0B14FF080526D
:10150000104B1A60BFF34F8FBFF36F8F11E04FF096
:10151000800372B683F31188BFF36F8FBFF34F8FD1
:1015200062B6FEE704F11000074DA84704F124005D
:10153000A847064B9847012038BD00BFE50F400083
:10154000B925400004ED00E0810E4000311040005C
:10155000F8B550B94FF0800372B683F31188BFF32A
:101560006F8FBFF34F8F62B6FEE7064617460D46F4
:1015700001FB00F054300B4B9847044678B11DB185
:1015800000F15403036000E02060E663256401215C
:101590002046054B984784F850700023A3642046EA
:1015A000F8BD00BF71124000BD1440002DE9F04F9E
:1015B00085B00192B8B1044601B3022B2CD01E466F
:1015C0000F46694B9847002834D1019B002B39D036
:1015D0004FF0800372B683F31188BFF36F8FBFF3B0
:1015E0004F8F62B6FEE74FF0800372B683F3118827
:1015F000BFF36F8FBFF34F8F62B6FEE7026C002A16
:10160000DBD04FF0800372B683F31188BFF36F8F86
:10161000BFF34F8F62B6FEE7E26B012ACFD04FF0E7
:10162000800372B683F31188BFF36F8FBFF34F8FC0
:1016300062B6FEE70025DFF85C81DFF85CA1DFF829
:10164000349141E00025F6E7324639462046474BC3
:101650009847A36C93B131462046454B984738B123
:101660004FF08052434B1A60BFF34F8FBFF36F8F21
:10167000414B9847012005B0BDE8F08F636A73B114
:1016800004F124003D4B98470028F1D04FF08052E0
:10169000384B1A60BFF34F8FBFF36F8FE8E7002816
:1016A000E6D04FF08052334B1A60BFF34F8FBFF339
:1016B0006F8FDDE7304B98470020DCE72046304B4A
:1016C0009847304B98470125C047A26BE36B9A427D
:1016D000BAD3022EB8D0019B002BEBD00DB902A8D3
:1016E000D047254B9847284B9847C04794F844303B
:1016F0005BB2B3F1FF3F02D1002384F8443094F889
:1017000045305BB2B3F1FF3F02D1002384F845308E
:10171000194B984701A902A81C4B9847E0B9C0474C
:10172000D4F838B0E56B144B9847AB45C6D1019956
:1017300004F11000164B98472046114B9847114B67
:1017400098470028BFD14FF08053C9F80030BFF34D
:101750004F8FBFF36F8FB6E72046094B9847094B71
:101760009847002087E700BF09274000E5124000A6
:101770006113400004ED00E031104000B925400045
:1017800015144000F12240008D21400069264000E0
:1017900035254000E50F4000512640002DE9F84373
:1017A000002839D00446002941D0022B4DD01F46D5
:1017B000904689463A4B9847EFF311864FF08003E5
:1017C00072B683F31188BFF36F8FBFF34F8F62B68A
:1017D000A26BE36B9A4201D3022F58D194F8455083
:1017E0006DB23A46494620462E4B9847B5F1FF3F29
:1017F00047D1A36C002B36D0394620462A4B984758
:10180000B8F1000F45D0002843D00120C8F80000EF
:1018100086F31188BDE8F8834FF0800372B683F336
:101820001188BFF36F8FBFF34F8F62B6FEE7006C76
:101830000028BAD04FF0800372B683F31188BFF34B
:101840006F8FBFF34F8F62B6FEE7E06B0128AED01B
:101850004FF0800372B683F31188BFF36F8FBFF32D
:101860004F8F62B6FEE7636AABB104F124000F4B01
:101870009847B8F1000F10D078B10120C8F80000E7
:10188000C6E76B1C5BB284F845300120C0E700203E
:10189000BEE70120BCE70120BAE70120B8E700BF9E
:1018A0000D124000E512400061134000B9254000D0
:1018B00070B170B50446036CABB14FF0800372B6E3
:1018C00083F31188BFF36F8FBFF34F8F62B6FEE7CC
:1018D0004FF0800372B683F31188BFF36F8FBFF3AD
:1018E0004F8F62B6FEE703683BB30E46264B984720
:1018F000EFF311854FF0800372B683F31188BFF3C5
:101900006F8FBFF34F8F62B6A26BE36B9A4233D2F5
:1019100094F845305BB20132A263B3F1FF3F25D1A9
:10192000A36CC3B100212046184B984736B328B3A7
:101930000120306085F3118870BD4368002BD4D03E
:101940004FF0800372B683F31188BFF36F8FBFF33C
:101950004F8F62B6FEE7636A93B104F124000C4B2B
:1019600098477EB170B101203060E3E701335BB28C
:1019700084F845300120DDE70020DBE70120D9E7CE
:101980000120D7E70120D5E70D1240006113400088
:10199000B92540002DE9F04784B0019290B104468A
:1019A000D9B10E46544B984728BB019B5BB34FF00F
:1019B000800372B683F31188BFF36F8FBFF34F8F2D
:1019C00062B6FEE74FF0800372B683F31188BFF36F
:1019D0006F8FBFF34F8F62B6FEE7036C002BE0D032
:1019E0004FF0800372B683F31188BFF36F8FBFF39C
:1019F0004F8F62B6FEE70027DFF82881DFF828A1C5
:101A0000DFF8009131E00027F6E7314620463B4BF6
:101A10009847013DA563236963B104F11000384B79
:101A2000984738B14FF08052364B1A60BFF34F8F52
:101A3000BFF36F8F344B9847012004B0BDE8F087A7
:101A4000314B98470020F8E702A8D04716E0002362
:101A500084F844301DE0002384F845301FE0204620
:101A60002A4B98472A4B98470127C047A56B002D62
:101A7000CBD1019B002BE3D0002FE5D0224B984720
:101A8000244B9847C04794F844305BB2B3F1FF3F12
:101A9000DDD094F845305BB2B3F1FF3FDBD01A4B99
:101AA000984701A902A81C4B9847C8B920461B4B70
:101AB00098470028D3D0019904F12400184B984787
:101AC0002046124B9847124B98470028CCD14FF034
:101AD0008053C9F80030BFF34F8FBFF36F8FC3E758
:101AE00020460A4B98470A4B984720460B4B98478D
:101AF0000028B9D00020A0E709274000ED134000DE
:101B0000B925400004ED00E03110400015144000FC
:101B1000F12240008D21400069264000C51240009E
:101B200035254000E50F4000512640002DE9F043E7
:101B300085B0019168B10446036CABB14FF08003EE
:101B400072B683F31188BFF36F8FBFF34F8F62B606
:101B5000FEE74FF0800372B683F31188BFF36F8FF7
:101B6000BFF34F8F62B6FEE75E4B984760B9019BAB
:101B700093B14FF0800372B683F31188BFF36F8F78
:101B8000BFF34F8F62B6FEE700252F46564EDFF8B3
:101B90008C91DFF8608152E000252F46F6E7013B8B
:101BA000A363236813B9514B98476060236963B1FD
:101BB00004F110004E4B984738B14FF080524D4B16
:101BC0001A60BFF34F8FBFF36F8F4B4B98470125C0
:101BD000284605B0BDE8F08355B14FF0800372B6DA
:101BE00083F31188BFF36F8FBFF34F8F62B6FEE7A9
:101BF000414B9847ECE702A8C84729E0002384F846
:101C0000443030E0002384F8453032E0B04760686B
:101C10003A4B98470546384B98473AE02046384BB0
:101C20009847384B984709E02046354B9847354B45
:101C300098472046344B984700283FD10127B047AA
:101C4000A36B002BABD1019B002BC5D0002FD2D0B2
:101C5000294B98472D4B9847B04794F844305BB2D6
:101C6000B3F1FF3FCAD094F845305BB2B3F1FF3F08
:101C7000C8D0214B984701A902A8254B98470028B6
:101C8000D2D12046204B98470028C7D02368002B8C
:101C9000BCD0019904F124001E4B98472046184BF4
:101CA0009847184B98470028C8D14FF08053C8F880
:101CB0000030BFF34F8FBFF36F8FBFE7002D87D08A
:101CC000094B9847636A53B1236B1968C1F1050149
:101CD0006068114B9847084B9847002578E700212A
:101CE000F6E700BF09274000E50F400071294000DA
:101CF000B925400004ED00E03110400029274000E4
:101D000015144000F1224000C51240008D21400012
:101D10006926400035254000A52840005126400096
:101D200010B40B4B1B6853B10123094C54F83320FA
:101D300032B10133082BF9D15DF8044B7047002311
:101D4000034A42F8331002EBC3035860F4E700BFC4
:101D5000680C402070B504460D461646124B984755
:101D600094F844305BB2B3F1FF3F0DD094F84530A6
:101D70005BB2B3F1FF3F0BD00C4B9847A36B5BB149
:101D800020460B4B984770BD002384F84430EDE7A4
:101D9000002384F84530EFE73246294604F1240059
:101DA000044B9847ECE700BFE50F400031104000BE
:101DB0001514400071254000084B1B681B683BB19F
:101DC000064B1B68DB68DB685A68054B1A60704776
:101DD0004FF0FF32024B1A60704700BF5C0A402090
:101DE0000C0B402080B5164DDFF86C80154FDFF8E6
:101DF0006C902B68BBB1144EC047FB68DC68201D9B
:101E0000B047124A1368013B13602B68013B2B60FB
:101E10000F4B9847206BDFF848A0D0472046D047AB
:101E20002B68002BE8D10B4B1B68012BE1D94FF03D
:101E30008053C9F80030BFF34F8FBFF36F8FD8E7DF
:101E4000CC0A4020400B4020E90E4000C80A402048
:101E500031104000640A4020E50F400004ED00E02E
:101E6000A112400070B504460E461C4B1D681C4B69
:101E7000186804301B4B984748B9194B1A681A491F
:101E80000B68D06A0122824023EA02030B60B4F19E
:101E9000FF3F00D19EB92C44114B1B685C60A542EA
:101EA00014D8124B18680E4B19680431104B984720
:101EB000104B1B689C4201D20E4B1C6070BD084B3E
:101EC000196804310C480D4B984770BD0C4B1868CD
:101ED000034B19680431064B984770BD540B4020E2
:101EE000580A4020E90E4000DC0A40205C0A4020ED
:101EF000B50E40000C0B40202C0B40209D0E4000E6
:101F0000600A40202DE9F04F83B083460D460193CF
:101F1000DDF834A096003046604B9847002800F06A
:101F20008D80074658205D4B98470446002800F0F6
:101F3000828007633246A5213846594B9847043EB4
:101F4000236B1E4426F007062B7884F834302B7858
:101F500063B12B4604F1340205F10901587802F807
:101F6000010F13F8010F08B18B42F7D1002784F855
:101F70003D700C9D042D28BF0425E562A564E7642F
:101F800004F104084046DFF86C91C84704F11800DA
:101F9000C8472461C5F10505A5616462276584F819
:101FA0005470019A594630463E4B98472060BAF12A
:101FB000000F01D0CAF800403B4B98473B4A1368DA
:101FC000013313603A4B1B68002B3AD0394B1B6826
:101FD0003BB9374B1B68DA6AE36A9A4201D8344B43
:101FE0001C60354A1368013313602364E06A334A86
:101FF0001168012383400B43136000EB80004146CE
:102000002F4B03EB80002F4B98472F4B9847294BC2
:102010001B68002B3BD0264B1B68DA6AE36A9A42A6
:1020200039D24FF08052294B1A60BFF34F8FBFF364
:102030006F8F01202CE03846254B98474FF0FF303A
:1020400026E01B4B1C601368012BCAD11C4E304686
:10205000204DA84706F11400A84706F12800A8471C
:1020600006F13C00A84706F15000A8471A4F384631
:10207000A8471A4E3046A8471948A8471948A84704
:102080001948A847194B1F60194B1E60A9E701208A
:1020900003B0BDE8F08F0120FAE700BF71124000E5
:1020A000153E4000950F4000E50F4000C80A402053
:1020B000580A4020280B4020D80A4020DC0A402043
:1020C000640A40209D0E40003110400004ED00E005
:1020D000A1124000810E4000E00A4020F40A402096
:1020E000140B4020400B40202C0B40205C0A402069
:1020F000600A4020970E400010B582B01A4B019341
:10210000002300938222194919481A4CA04701283C
:1021100004D0B0F1FF3F1CD002B010BD164B984761
:102120000128F6D14FF0800372B683F31188BFF314
:102130006F8FBFF34F8F62B64FF0FF320F4B1A60B5
:1021400001220F4B1A6000220E4B1A600E4B98476B
:10215000E2E74FF0800372B683F31188BFF36F8F0D
:10216000BFF34F8F62B6FEE7080B40209866400031
:10217000E51D4000051F4000492A40000C0B40208F
:10218000280B4020540B402021114000024A1368C4
:1021900001331360704700BFD40A4020014B186818
:1021A000704700BF540B40202DE9F047414B1B689E
:1021B000002B77D1404B1D6801351D60D5B93F4BD1
:1021C0001B681B6853B14FF0800372B683F311880C
:1021D000BFF36F8FBFF34F8F62B6FEE7374A1168C8
:1021E000374B186810601960364A13680133136062
:1021F000354B9847354B1B689D4218D20024344B11
:102200001B68DB6A03EB83039B00324AD358022B23
:1022100028BF0124304B1B680BB9304B9847304B1B
:102220001B68002B0CBF20460120BDE8F08700246E
:10223000DFF88890DFF8B4802A4F1FE04FF0FF32BC
:10224000224B1A60DBE7214A1360D8E706F1180039
:10225000C047F06A3A680123834013433B6000EBB8
:10226000800051461B4B03EB80001F4B9847184BD7
:102270001B68F26ADB6A9A4228BF0124D9F8003051
:102280001B68002BDAD0D9F80030DB68DE68736891
:102290009D42D8D306F1040A5046C047B36A002BCA
:1022A000D4D1D6E70C4A1368013313600B4B98471F
:1022B0000024B4E7D40A4020540B40205C0A40209C
:1022C000600A4020100B4020B91D40000C0B40203C
:1022D000580A4020640A4020D00A40204935400076
:1022E000580B4020DC0A40209D0E4000E90E4000C3
:1022F000364B1B6853B94FF0800372B683F31188D5
:10230000BFF36F8FBFF34F8F62B6FEE72DE9F04149
:102310002F4B98472D4B1A68013A1A601B68002B07
:1023200050D12C4B1B682BB900242B4B98472046CF
:10233000BDE8F0810024294F294E2A4D3B6803B3A4
:10234000FB68DC6804F11800B04704F1040840465B
:10235000B047E06A2A680123834013432B6000EBF7
:1023600080004146204B03EB8000204B9847204BD8
:102370001B68E26ADB6A9A42E0D301221D4B1A60B5
:10238000DCE70CB11C4B98471C4B1C686CB11C4F14
:10239000184E012501E0013C04D0B8470028FAD0CE
:1023A0003560F8E70022154B1A60124B1B685BB1D1
:1023B0004FF08052134B1A60BFF34F8FBFF36F8FF4
:1023C0000124B2E70024B0E70024AEE7D40A40209D
:1023D000E50F4000C80A402031104000140B402097
:1023E000E90E4000DC0A4020640A40209D0E4000B7
:1023F000580A4020580B4020B91D4000D00A402008
:10240000A921400004ED00E010B5B8B10446104B1E
:102410001B6853B14FF0800372B683F31188BFF38A
:102420006F8FBFF34F8F62B6FEE70A4B98470021CC
:102430002046094B9847094B984738B94FF08052CE
:10244000074B1A60BFF34F8FBFF36F8F10BD00BFF4
:10245000D40A40208D214000651E4000F12240003A
:1024600004ED00E02D4B1B68002B2CD110B5002291
:102470002B4B1A602B4B1B681B6B1A68B2F1A53FE4
:1024800003D15A68B2F1A53F21D0264B18681968CC
:102490003431254B9847254B1B68B3FA83F3DBB2E5
:1024A000C3F11F0303EB8302920021498A58BAB992
:1024B0004FF0800372B683F31188BFF36F8FBFF3C1
:1024C0004F8F62B6FEE70122154B1A6070479A687B
:1024D000B2F1A53FD9D1DB68B3F1A53FD5D1DAE799
:1024E000134A9900C81802EB80004468646844608D
:1024F000194402460832944209D003EB83030C4A84
:1025000002EB83035B68DA68064B1A6010BD6068F3
:10251000074A02EB81025060EFE700BFD40A402077
:10252000580B4020580A402031354000DC0A40203A
:10253000640A402050B94FF0800372B683F31188CB
:10254000BFF36F8FBFF34F8F62B6FEE710B50C4637
:10255000044B19681831044B984701212046034B5E
:10256000984710BD580A4020B50E4000651E400037
:1025700038B578B114460D460C4B196818310C4B20
:102580009847002C21460CBF28464FF0FF30094BDE
:10259000984738BD4FF0800372B683F31188BFF3BC
:1025A0006F8FBFF34F8F62B6FEE700BF580A40201F
:1025B0009D0E4000651E400038B5C368DC6824B33A
:1025C00004F1180528461A4B98471A4B1B683BBB69
:1025D000251D2846164B9847E06A174A11680123C3
:1025E00083400B43136000EB80002946134B03EB41
:1025F0008000134B9847134B1B68E26ADB6A9A42D0
:1026000013D90120104B186038BD4FF0800372B60B
:1026100083F31188BFF36F8FBFF34F8F62B6FEE76E
:1026200029460A48064B9847E5E7002038BD00BF19
:10263000E90E4000D40A4020DC0A4020640A402011
:102640009D0E4000580A4020580B4020140B40209B
:10265000034B1B680360034B1B684360704700BF5C
:10266000100B4020540B4020A8B170B50546E9B1CD
:102670000C461D4B98471D4B1A6869682368B3F1D7
:10268000FF3F2FD01A4800682E68864219D08A4230
:1026900017D301241BE04FF0800372B683F3118837
:1026A000BFF36F8FBFF34F8F62B6FEE74FF080032B
:1026B00072B683F31188BFF36F8FBFF34F8F62B68B
:1026C000FEE7521A9A4206D3002323600124094BE5
:1026D0009847204670BD9B1A23602846064B9847B2
:1026E0000024F4E70024F2E7E50F4000540B4020FB
:1026F000100B402031104000512640000122014BB8
:102700001A607047580B4020054B1B6833B1054BCE
:102710001B68002B0CBF022000207047012070476F
:10272000280B4020D40A4020002850D038B5044659
:10273000C26A28490968C96A8A423FD28169002968
:1027400005DB24490968C96AC1F10501816102EB11
:102750008202214901EB82026169914205D01D4A42
:102760001268D26AE262012038BD251D28461B4B43
:10277000984770B9E26A02EB82039B001649CB5876
:102780003BB917480368012101FA02F223EA020269
:102790000260104B1B68D86AE062114A116801247C
:1027A00004FA00F30B43136000EB800029460A4B48
:1027B00003EB80000B4B9847204638BD054A126852
:1027C000806CD36A98422CBF0020012038BD0020C5
:1027D000704700BF580A4020640A4020E90E4000BC
:1027E000DC0A40209D0E400000284DD038B504463C
:1027F000274A126890420AD04FF0800372B683F3E2
:102800001188BFF36F8FBFF34F8F62B6FEE7C26CC4
:1028100052B94FF0800372B683F31188BFF36F8F04
:10282000BFF34F8F62B6FEE7013AC264C06AA16C83
:1028300088422BD052BB251D2846164B984768B9B5
:10284000E16A01EB81039B00134AD35833B9134863
:10285000036801228A4023EA02030360A06CE0625D
:10286000C0F10503A3610D4A1168012404FA00F3C5
:102870000B43136000EB80002946074B03EB8000FD
:10288000074B9847204638BD00207047002038BDD0
:10289000580A4020E90E4000640A4020DC0A40202B
:1028A0009D0E4000002858D038B50446C06C50B981
:1028B0004FF0800372B683F31188BFF36F8FBFF3BD
:1028C0004F8F62B6FEE7A26C8A4238BF0A46E16AC1
:1028D000012841D191423FD02048006884420AD16A
:1028E0004FF0800372B683F31188BFF36F8FBFF38D
:1028F0004F8F62B6FEE7E262A069002802DBC2F1F8
:102900000502A26101EB8101154A02EB81016269B6
:102910008A4221D1251D2846124B984768B9E16AA1
:1029200001EB81039B000E4AD35833B90E4803686C
:1029300001228A4023EA02030360E06A0A4A11681E
:10294000012383400B43136000EB80002946044BB6
:1029500003EB8000054B984738BD7047580A40206C
:10296000640A4020E90E4000DC0A40209D0E400031
:10297000054B1B6823B1044B1A68D36C0133D36435
:10298000014B1868704700BF580A402008B54160E5
:10299000006191420CD8D21A83699A4201D3012076
:1029A00008BD011D094B1868094B9847002008BD58
:1029B0009A4203D2994201D3012008BD011D054B63
:1029C0001868034B9847002008BD00BF600B4020EB
:1029D000B50E40005C0B402070B5104B9847104B73
:1029E0001B6813B10F4B984770BD0F4D28460F4E13
:1029F000B0470F4C2046B0470E4B1D600E4B1C607D
:102A00000022102105200D4B9847054B1860002827
:102A1000E8D00B490B4B9847E4E700BFE50F4000B7
:102A2000900B402031104000640B4020810E40008C
:102A3000780B40205C0B4020600B4020511540007B
:102A4000A0664000211D400010B582B00E4B984793
:102A50000E4B1B686BB10E4B0193042300930023B4
:102A60004FF482720B490C480C4CA04708B102B0DD
:102A700010BD4FF0800372B683F31188BFF36F8FE0
:102A8000BFF34F8F62B6FEE7D9294000900B40207C
:102A9000940B4020A8664000C92B4000051F400051
:102AA000D8B130B585B015460446154A106820B334
:102AB0001A46009101950294052919DC114B98479B
:102AC00002284FF000030CBF089A1A4669460C48CA
:102AD00000680D4CA04705B030BD4FF0800372B6C2
:102AE00083F31188BFF36F8FBFF34F8F62B6FEE79A
:102AF00000236946054CA047EDE70020EBE700BF47
:102B0000900B402009274000AD1540009D17400064
:102B10002DE9F04782B08046244B98470746244B66
:102B20001B6898421BD30023C8F80030204B1F605D
:102B3000384602B0BDE8F087002100910B465246AE
:102B400020461C4CA04760B94FF0800372B683F357
:102B50001188BFF36F8FBFF34F8F62B6FEE7164D3C
:102B6000164E2B681A68C2B1DB68D3F800A0DC6887
:102B700004F104094846B047636A20469847E36970
:102B8000012BEED1A36953449A45D5D263602461E9
:102B9000494628680A4B9847E3E70A4A10680649FD
:102BA000086013600123C8F80030BFE79D21400092
:102BB0008C0B4020A12A40005C0B4020E90E400015
:102BC000B50E4000600B40202DE9F04788B0754EEF
:102BD000754FDFF8FC91DFF8FC8133681A68002A32
:102BE00000F0CE80DB681C68B84704A86F4B98479C
:102BF0000546049B002B44D1A04212D20022611B47
:102C00006B4B18686B4B98476B4B984700283AD131
:102C10004FF08053C9F80030BFF34F8FBFF36F8F71
:102C200031E0654B98473368DB68D3F80CA00AF1B4
:102C30000400C047DAF81C30012B04D0DAF8243045
:102C4000504698471FE0DAF8181023462A462144D8
:102C500050465A4DA8470028F0D0002100910B465D
:102C600022465046564CA0470028E7D14FF080033B
:102C700072B683F31188BFF36F8FBFF34F8F62B6C5
:102C8000FEE74D4B98474A4D4E4C06E00799069893
:102C9000059B9847049B002B08DA002204A92868AA
:102CA000A047002899D0049B002BEFDBDDF818A08B
:102CB000DAF8143013B10AF10400C04703A83B4B03
:102CC0009847049B092BE8D801A252F823F000BFD3
:102CD000F92C4000F92C4000F92C40009B2C4000BE
:102CE0004D2D4000792D4000F92C4000F92C40007A
:102CF0009B2C40004D2D4000059CDAF8181023460F
:102D00000246214450462D4CA0470028BCD0DAF89A
:102D1000243050469847DAF81C30012BB4D1DAF849
:102D20001820002100910B46059802445046244C7F
:102D3000A0470028A8D14FF0800372B683F3118812
:102D4000BFF36F8FBFF34F8F62B6FEE70599CAF8E6
:102D5000181031B10346024601445046174CA047B3
:102D600092E74FF0800372B683F31188BFF36F8F41
:102D7000BFF34F8F62B6FEE75046134B984783E789
:102D8000B84704A8094B98470546049B002B7FF4DD
:102D900078AF0E4B1B681A68B2FA82F2520900240F
:102DA0002DE700BF5C0B40208D214000112B40001F
:102DB000900B4020551D4000F12240008D2940001D
:102DC000A12A400095194000A1124000600B40204C
:102DD00004ED00E0E90E400010B582B000238DF84C
:102DE00007304FF080524FF020510A480A4B984765
:102DF00060B131238DF8073000231A460DF1070129
:102E000006480068064CA04702B010BD30238DF87C
:102E10000730F1E700140E4077074000B40C402063
:102E20009D17400010B582B000238DF807304FF099
:102E300000424FF020510A480A4B984760B13123B5
:102E40008DF8073000231A460DF107010648006887
:102E5000064CA04702B010BD30238DF80730F1E7D3
:102E600000120E4077074000AC0C40209D17400038
:102E700010B582B000238DF807304FF400224FF0D8
:102E800020510A480A4B984760B131238DF807302A
:102E900000231A460DF1070106480068064CA047BA
:102EA00002B010BD30238DF80730F1E7000E0E4060
:102EB00077074000A80C40209D17400030B583B034
:102EC0000D4B00245C669B6E0C4D2B6001220C4B5D
:102ED0001A7002A941F8044D0A4B18680A4B98472A
:102EE0002B6802A941F8083D23462246074800689E
:102EF000074CA04703B030BD00C003409C0B4020EE
:102F0000980B4020B00C4020B1184000B80C402075
:102F10009D17400008B50322002101200C4B984763
:102F20000C4B186010B90C480C4B9847094E4FF4E5
:102F3000FA740B4D21463068A8470128FAD1204683
:102F4000084B9847084B01225A6102221A60F1E7A8
:102F500051154000B00C4020B067400039374000A8
:102F60002D1B40000924400000C0034008B5074C59
:102F70004FF48076064D03E026634FF47A70A8473D
:102F8000E36B13F4807FF7D06663F6E700120E4020
:102F900009244000F0B583B005460C460023019398
:102FA0002A4B984213D02A4B984218D0294B98426A
:102FB0001DD0294B9D4222D0284B9D4227D0284B23
:102FC0009D422ED0274B9D4235D003B0F0BD1F4609
:102FD000254E21463846B0470028FAD1E9E71F467A
:102FE000214E21463846B0470028FAD1E4E71F4673
:102FF0001D4E21463846B0470028FAD1DFE71F466C
:10300000194E21463846B0470028FAD1DAE71E4665
:10301000164D01A93046A8470028FAD1019B23701C
:10302000D3E71E46114D01A93046A8470028FAD122
:10303000019B2370C9E71E460C4D01A93046A847E5
:103040000028FAD1019B2370BFE700BF00080E40A3
:10305000000A0E40001A0E40001C0E4000400240C4
:103060000080024000C00240A30A4000B70B4000AD
:1030700070B50C462A4B984213D02A4B984219D06F
:10308000294B98421FD0294B984225D0284B984273
:103090002BD0284B984231D0274B984237D0002074
:1030A00070BD1E46254D21463046A8470028FAD15E
:1030B000012070BD1E46214D21463046A8470028FC
:1030C000FAD1012070BD1E461C4D21463046A8474E
:1030D0000028FAD1012070BD1E46184D2146304609
:1030E000A8470028FAD1012070BD1E46144D214684
:1030F0003046A8470028FAD1012070BD1E46104D69
:1031000021463046A8470028FAD1012070BD1E464E
:103110000B4D21463046A8470028FAD1012070BD4A
:1031200000080E40000A0E40001A0E40001C0E401F
:10313000004002400080024000C00240910A40006E
:10314000A10B4000B0F5B97F20D9B0F5397F20D967
:1031500040F2564398421FD9B0F5B96F1FD940F2DB
:103160003A7398421ED940F6AC0398421DD940F6F6
:103170001E2398421CD9B0F5396F1CD940F6025372
:10318000984294BF382339230B70704730230B705B
:10319000704731230B70704732230B707047332315
:1031A0000B70704734230B70704735230B707047DA
:1031B00036230B70704737230B70704710B582B001
:1031C00004460A20054B984700230093224601211C
:1031D0000348044CA04702B010BD00BF710A400074
:1031E000000E0E40C70740002DE9F0438DB00020CF
:1031F0004E4B984710204E4CA0470C20A0470A2069
:10320000A047DFF8788100224FF080514046494DB9
:10321000A847494F00224FF000413846A847474C85
:1032200000224FF400212046A84701224FF0805190
:103230004046434DA84701224FF000413846A84779
:1032400001224FF400212046A8473E4D4FF4803321
:103250002B60A02685F810634FF480532B6085F80F
:103260000C634FF480632B6085F80A634FF0805144
:103270004046DFF80C91C8474FF000413846C84738
:103280004FF400212046C8472F4B009340234FF0B6
:10329000805210214046DFF8EC80C0472B4B009352
:1032A00040234FF000420C213846C047284B009382
:1032B00040234FF400220A212046C047254C2046D7
:1032C000254B984706A8254B984706A92046244B2E
:1032D0009847636823F08F03636003A8214B9847E6
:1032E00000278DF80D7003AA394620461E4B9847DB
:1032F00067664FF40073E36604A81C4B984704A963
:1033000020461B4B984701231A4A394620461A4F3C
:10331000B84785F81D634FF000532B6001236361AC
:10332000022323600DB0BDE8F08300BFBD31400033
:10333000710A40009107400000120E40000E0E403E
:103340006507400000E100E0D92D4000252E400037
:10335000712E400000C003400107400031054000CD
:103360008105400061054000ED0440006B05400010
:103370001D054000BD2E40008106400000140E4097
:10338000210840007D084000F8B507460E460F4D65
:103390000F4C2846A0470028FBD039460B480D4B60
:1033A00098470A4D0A4C2846A0470028FBD03146D2
:1033B0000648084B9847054D054C2846A04700286D
:1033C000FBD058210148034B9847F8BD00800240CC
:1033D000990B4000A10B4000F0B583B000220421FE
:1033E00005202E4CA0472E4B1860002201210520FD
:1033F000A0472C4B1860002201210520A0472A4B32
:103400001860002201210520A047284B18603027B2
:103410008DF80070264B9847214E6425254C2A468E
:1034200001A93068A047D8B92A460DF103011D4B08
:103430001868A04730BB2A460DF102011A4B1868E4
:10344000A04728BB2A460DF10101184B1868A04778
:103450000028E4D09DF801103320174B9847DEE791
:1034600001991648164B984769460198154B98479D
:103470009DF800108F4202D076200F4B98479DF8A0
:103480000070D1E79DF8031031200B4B9847D2E72D
:103490009DF802103220084B9847D3E751154000A1
:1034A000B80C4020B40C4020AC0C4020A80C4020AC
:1034B000E93140009519400089334000CC67400055
:1034C000393740004531400000B583B002A90023E0
:1034D00041F8043D0548064B98470198582814BF09
:1034E0000020012003B05DF804FB00BF0080024013
:1034F000B70B400008B5094E094D0A4C03E0012105
:103500002046094B984730215320B047A847002850
:10351000F5D001212046054B9847F4E78933400058
:10352000C9344000000E0E406F0740007307400092
:1035300008B50A4601460248024B9847FEE700BF1D
:10354000DC6740003937400070474FF0800372B6A7
:1035500083F31188BFF36F8FBFF34F8F62B6FEE71F
:1035600070B588B03C4B98473C4B98473C4D3D4B21
:103570001D603D4A3D4B1A603D4A3E4B1A604FF478
:10358000E1330293C02303934FF4006304930024B8
:10359000059406940E20384B9847384A02A92846CD
:1035A000374B98472846374B98472846364B98471D
:1035B000364E336821469868354DA8473368214612
:1035C0005868A847336821469868A8473148324D63
:1035D000A84732493248A847324A33493348A847B6
:1035E0000194009423464FF4807231493148324CA3
:1035F000A047012801D03148A84700230193009338
:103600004FF480722E492F482B4CA047012802D03E
:103610002D48214B98470023019300934FF480726B
:103620002A492B48244CA047012802D029481A4B8C
:1036300098470023019300934FF48072264927484E
:103640001D4CA047012802D02548134B9847254B15
:103650009847002008B070BDD5014000D10240005D
:1036600000800240E40B402071304000E00B40201D
:10367000952F4000DC0B4020710A400080D1F008FB
:10368000390B40008D0B4000930B40000C00402094
:10369000ED3E4000B066400039374000CC66400047
:1036A000D8664000E0664000EC664000F8664000E6
:1036B000106740006D2F4000051F40001467400058
:1036C00038674000D93340004067400060674000E1
:1036D000152F40006467400080674000F5344000CB
:1036E0008C674000F920400070B50F4E0F4D761BDF
:1036F000B61018BF002405D0013455F8043B984794
:10370000A642F9D10A4E0B4D761B03F027F9B610ED
:1037100018BF002406D0013455F8043B9847A64250
:10372000F9D170BD70BD00BF686940006869400094
:1037300070694000686940000FB400B5074983B064
:1037400004AB086853F8042B8168019300F066FD10
:1037500003B05DF804EB04B0704700BF0C004020DC
:10376000024B0146186800F00BB800BF0C00402067
:10377000024B0146186801F06DBE00BF0C004020EE
:103780002DE9F04F01F10B06162E83B0054640F2ED
:103790009E8036F0070600F1BD80B14200F2BA808B
:1037A00000F086FBB6F5FC7FC0F09382730A00F050
:1037B000B880042B00F27981B30903F1390003F1D9
:1037C000380EC300BF4F3B44A3F108015C68A1421F
:1037D00006D10CE0002A80F2AA80E468A14206D05B
:1037E000636823F003039A1B0F2AF3DD70463C69DC
:1037F000DFF8E4E2744500F0AB81636823F0030373
:103800009A1B0F2A00F39081002AC7F814E0C7F82A
:1038100010E080F29D80B3F5007F80F06181DB08CD
:1038200003F1010C99107A6857F83C80C4F80880BD
:1038300001238B4007EBCC0113430839E1607B6027
:1038400047F83C40C8F80C408210012494409C4248
:1038500000F28B801C4206D120F0030064001C4261
:1038600000F10400FAD007EBC009CC468046DCF832
:103870000C309C4507D16DE1002A80F27B81DB682A
:103880009C4500F06781596821F003018A1B0F2ACB
:10389000F2DDD3F80CC0D3F8088000939C192846B9
:1038A00046F0010642F001055E60C8F80CC0CCF895
:1038B00008807C613C61C4F80CE0C4F808E06560F5
:1038C0005A5000F0FBFA009B03F108041EE0102997
:1038D00020D800F0EDFA102618230220794F3B443F
:1038E000A3F108025C68944200F03D816368E168DE
:1038F000A66823F00303234428465A68F16042F087
:1039000001028E605A6000F0D9FA0834204603B0F4
:10391000BDE8F08F00240C2320462B6003B0BDE8E7
:10392000F08F40204FF400734FF03F0E4AE72344DE
:10393000E1685A68A66842F00102F16028468E608C
:103940005A6000F0BBFA0834204603B0BDE8F08F9F
:10395000234428465A6842F001025A6000F0AEFA49
:103960000834204603B0BDE8F08FBC68636823F0DC
:103970000308B04504D3A8EB06030F2B00F38580A2
:10398000DFF85891504BD9F800201B6801323344BE
:1039900004EB080A00F0558103F580530F3323F43C
:1039A0007F6B2BF00F0B5946284600F08DFA411C17
:1039B000024600F0FC80824500F2F780434B196814
:1039C0005944196000F04D81D9F8000001301BBF47
:1039D000A2EB0A0A5144C9F80020196012F007014D
:1039E00000F01581C1F10800C1F580510244083191
:1039F00002EB0B09C9F30B09A1EB0909494628465B
:103A00000193009200F060FA431C9DE80C0000F066
:103A10004381801A484440F001001968BA60494463
:103A2000BC425060196017D0B8F10F0F40F2FB8014
:103A30006068A8F10C0222F0070204EB020E00F00D
:103A400001004FF0050C10430F2A6060CEF804C04F
:103A5000CEF808C000F217811D4BBC681A6891426D
:103A600088BF19601B4B1A689142626888BF196051
:103A700022F003029642A2EB060301D80F2B04DCCE
:103A8000284600F01BFA002440E7A21943F0010386
:103A900046F0010666602846BA60536000F00EFAF0
:103AA0000834204603B0BDE8F08F142B71D9542B95
:103AB00000F2A380330B03F16F0003F16E0EC3001D
:103AC00080E600BF38044020D00B4020A00B4020EF
:103AD000C80B4020CC0B4020400440204008402030
:103AE0005A0A042A5BD9142A00F2AE8002F15C0162
:103AF000C9005B3207EB010C7958ACF1080C8C451E
:103B000000F088804A6822F00302934273D28968E9
:103B10008C45F7D1DCF80C207B68E260C4F808C063
:103B20009460CCF80C408FE6A11946F0010C42F0ED
:103B30000106C4F804C0284679613961C1F80CE077
:103B4000C1F808E04E60E25000F0B8F90834DDE654
:103B50007B6879E608F1010818F0030F0CF1080CF6
:103B60007FF485AE2DE0DC68A34208BF02303FF44D
:103B70003EAEBBE619441C464A68DB6854F8086F41
:103B800042F001024A602846F3609E6000F096F918
:103B9000BCE603F15C0003F15B0EC30012E69A0978
:103BA00002F13901C9003832A4E7BC4254D0BC68E4
:103BB000626822F003025DE759F80839994540F040
:103BC000868010F0030F00F1FF30F5D17B6823EA07
:103BD00004037B6064009C423FF6C7AE002C3FF4B8
:103BE000C4AE1C4240467FF43EAE64001C4200F16D
:103BF0000400FAD037E68C468CE7B3F5AA7F15D8D7
:103C0000F30B03F1780003F1770EC300DAE54FF40C
:103C10008051EDE67B689210012101FA02F2134314
:103C20007B60624679E70123536029E740F25452F2
:103C3000934222D8B30C03F17D0003F17C0EC30044
:103C4000C0E503F1100BAEE6542A29D81A0B02F195
:103C50006F01C9006E324DE7204B19685944196055
:103C6000B2E6CAF30B0000287FF4AEAE08EB0B03FC
:103C7000BA6843F001035360EEE67F204FF47E7391
:103C80004FF07E0E9EE504F108012846009301F0F6
:103C9000E1FB009B1968DFE601204FF00009BCE65C
:103CA000B2F5AA7F05D8DA0B02F17801C9007732A4
:103CB00020E740F254518A4205D89A0C02F17D0166
:103CC000C9007C3216E74FF47E717E2212E77B68D2
:103CD00080E7F00806F1080300E600BFA00B4020D3
:103CE000844641EA000313F003036DD1403A41D307
:103CF00051F8043B40F8043B51F8043B40F8043BC6
:103D000051F8043B40F8043B51F8043B40F8043BB5
:103D100051F8043B40F8043B51F8043B40F8043BA5
:103D200051F8043B40F8043B51F8043B40F8043B95
:103D300051F8043B40F8043B51F8043B40F8043B85
:103D400051F8043B40F8043B51F8043B40F8043B75
:103D500051F8043B40F8043B51F8043B40F8043B65
:103D600051F8043B40F8043B51F8043B40F8043B55
:103D7000403ABDD2303211D351F8043B40F8043BF5
:103D800051F8043B40F8043B51F8043B40F8043B35
:103D900051F8043B40F8043B103AEDD20C3205D305
:103DA00051F8043B40F8043B043AF9D2043208D0FD
:103DB000D2071CBF11F8013B00F8013B01D30B886F
:103DC00003806046704700BF082A13D38B078DD04D
:103DD00010F003038AD0C3F10403D21ADB071CBF1F
:103DE00011F8013B00F8013B80D331F8023B20F889
:103DF000023B7BE7043AD9D3013A11F8013B00F8C2
:103E0000013BF9D20B7803704B7843708B78837049
:103E10006046704770B4860746D0541E002A41D0D1
:103E2000CAB2034602E014F1FF343BD303F8012B7E
:103E30009D07F8D1032C2ED9CDB245EA05250F2CCC
:103E400045EA054519D903F110022646103E0F2E0A
:103E500042F8105C42F80C5C42F8085C42F8045CE2
:103E600002F11002F2D8A4F1100222F00F0204F0C5
:103E70000F041032032C13440DD91E462246043A77
:103E8000032A46F8045BFAD8221F22F00302043208
:103E9000134404F003042CB1C9B21C4403F8011B01
:103EA0009C42FBD170BC704714460346C2E700BF7A
:103EB000014801F069BD00BFCC0C4020014801F071
:103EC00065BD00BFCC0C402038B5074C002305462B
:103ED00008462360FCF7ACFF431C00D038BD2368C4
:103EE000002BFBD02B6038BDE00C402000290CBF1C
:103EF000022200224FF4806300F000B82DE9F04365
:103F0000614C256883B004460F4690461E4615B1A5
:103F1000AB6B002B64D0B8F1020F06D0B8F1010FE3
:103F200000F29F80002EC0F29C80636ED80734D5CB
:103F30002146284601F010F9216B41B104F14003FC
:103F4000994202D0284601F085FA00232363B4F990
:103F50000C300022A26162601A063AD423F44A634C
:103F600023F00303B8F1020FA3811DD001AB6A4611
:103F70002146284601F00CFDA3891843A081002E9C
:103F800032D1009E3046FFF7EBFB074600286BD08E
:103F9000A38943F08003A38128E0A3899905C7D4AE
:103FA000A06D01F0F1FCC3E70025616E002604F16D
:103FB000430243F002030120A660CE07A3812260E2
:103FC0002261606101D498053ED5284603B0BDE862
:103FD000F0832169284601F03DFAB4F90C30BDE7C1
:103FE000284601F011F996E7002FCBD0AB6B002BE0
:103FF00033D0009BB4F90C2027609E421CBF42F4D2
:104000000062A281B8F1010F04BF42F00102A28157
:1040100092B212F00803276166610ED0D1071AD55B
:10402000656E7642002315F00105A661A36009D0F4
:104030000025284603B0BDE8F083A360656E15F047
:104040000105F5D19305C0D4A06D01F09FFC284671
:1040500003B0BDE8F083A660F0E7284601F0D4F88D
:10406000C7E74FF0FF35B0E7DDF80090B14504D069
:104070004846FFF775FB074620B9B4F90C304FF0FE
:10408000FF3592E74E4683E70C0040200000000019
:104090000000000000000000000000000000000020
:1040A0000000000000000000000000000000000010
:1040B0000000000000000000000000000000000000
:1040C00090F800F06DE9024520F007016FF0000C58
:1040D00010F0070491F820F040F049804FF0000400
:1040E0006FF00700D1E9002391F840F000F10800DB
:1040F00082FA4CF2A4FA8CF283FA4CF3A2FA8CF313
:104100004BBBD1E9022382FA4CF200F10800A4FA79
:104110008CF283FA4CF3A2FA8CF3E3B9D1E90423CD
:1041200082FA4CF200F10800A4FA8CF283FA4CF304
:10413000A2FA8CF37BB9D1E9062301F1200182FABE
:104140004CF200F10800A4FA8CF283FA4CF3A2FAC4
:104150008CF3002BC6D0002A04BF04301A4612BAD2
:10416000B2FA82F2FDE8024500EBD2007047D1E9D5
:10417000002304F00305C4F100004FEAC50514F064
:10418000040F91F840F00CFA05F562EA05021CBF35
:1041900063EA050362464FF00004A9E72DE9F84FF2
:1041A0004B6E9C0493462FD59368126853B30E460A
:1041B000074602F1080919E920045FEA9A0817D0B6
:1041C000043D002401E0A04510D0324655F8041FFC
:1041D000384601F0BBF8431C04F10104F3D100237D
:1041E000CBF80830CBF80430BDE8F88FDBF80830A6
:1041F0002AF0030AA3EB0A03CBF8083009F10809F7
:10420000002BD8D10020EAE701F00AFA0023CBF80E
:104210000830CBF80430BDE8F88F00BF2DE9F04F2F
:10422000ADB01D468B4690460793069018B1836B40
:10423000002B00F0F380DBF86430BBF90C00DF07E3
:1042400081B202D48E0540F1FC808C040AD4DBF8E4
:10425000643040F4005123F40053ABF80C10CBF859
:10426000643089B2080740F1B380DBF81030002BCE
:1042700000F0AE8001F01A030A2B00F0B580002395
:104280000DF170090B93119310930393CDF83C90AB
:10429000CA46CDF810B098F800304446FBB1252B43
:1042A00002D11CE0252B03D014F8013F002BF9D1DB
:1042B000A4EB08059DB1109B119ACAF80080013348
:1042C0002A44072BCAF80450119210937ADD002A71
:1042D00040F0B084039B10922B44CA46039323788A
:1042E000002B00F0E08300204FF000038DF8373002
:1042F00004F1010862780546064603464FF0FF3494
:1043000008F10108A2F12001582900F2DE82DFE85D
:1043100011F02102DC02DC022902DC02DC02DC02F8
:10432000DC02DC02DC0289029502DC02A200BD0292
:10433000DC029F01A401A401A401A401A401A40121
:10434000A401A401A401DC02DC02DC02DC02DC0228
:10435000DC02DC02DC02DC02DC02B201DC02DC0298
:10436000DC02DC02DC02DC02DC02DC02DC02DC025D
:104370009701DC02DC02DC02DC02DC029B01DC02D5
:10438000DC025302DC02DC02DC02DC02DC02DC02C6
:10439000DC02DC02DC02DC025A021B02DC02DC0270
:1043A000DC026E021B02DC02DC027302DC02F5019D
:1043B00082010902D702DC029A02DC02A700DC02B9
:1043C000DC022E020AF1080A039B2B44039386E7C2
:1043D0005946069800F0ACFD18BBBBF80C1001F074
:1043E0001A030A2B7FF44BAFBBF90E30002BFFF6FC
:1043F00046AFDBF86430DB0705D48F0503D4DBF868
:10440000580001F0C3FA2B4642465946069800F080
:104410004DFD039003982DB0BDE8F08F00F0F4FE41
:1044200009E7DBF86430D90704D4BBF80C309A05EF
:1044300040F1AA844FF0FF33039303982DB0BDE8F9
:10444000F08FDBF8580001F09FFABBF90C0081B245
:10445000FBE67642079243F0040398F800204FE70A
:1044600008969E0600F150840799DD060A4600F181
:10447000EF83580640F1EC830E88043100270122B7
:1044800007914FF000018DF837100025611C00F0F6
:10449000168123F08001029156EA070140F0148151
:1044A000002C40F05C83002A40F0B78313F0010336
:1044B000059300F057840DF1B00B30230BF8413D0C
:1044C000059BA342B8BF234601930DB1013301936D
:1044D000029B13F00203099302D0019B0233019364
:1044E000029B13F084030A9340F01782089B019A01
:1044F0009D1A002D40F31182102D40F39084109BE3
:10450000119AC44ED6461027A2461946069C07E0CB
:1045100001F1020C0EF1080E0146103D102D11DDC7
:10452000481C1032072811928EE8C0001090EFDD71
:10453000002A40F0E481103D102D11464FF0010C8F
:10454000CE46EDDC54466146F2462A4407291192D4
:10455000CAF80060CAF80450109100F3EC829DF88C
:1045600037500AF1080A481C002D40F0DE81099BF3
:10457000002B00F0F88102320EA9022307281192C5
:1045800010908AE80A0040F3EA81002A40F08C8308
:104590000A9B802B4FF001001146CA4640F0E7818C
:1045A000089B019D5E1B002E40F3E181102E9A4D69
:1045B00040F35084D4461027A246069C07E001F140
:1045C000020E0CF1080C0146103E102E11DD481CA5
:1045D0001032072811928CE8A0001090EFDD002A1D
:1045E00040F09D82103E102E4FF0010E1146CC4639
:1045F000EDDC5446E2463244BEF1070F11928AE8E0
:104600006000CDF840E000F369830AF1080A0EF17A
:1046100001007146ABE1089613F0200240F08C8354
:1046200013F0100140F01A8313F0400200F01683DB
:1046300007980A460146043106880791002720E7BB
:10464000089643F01003E7E7089643F0100308E7E5
:1046500043F0800398F8002052E6A2F130010026D2
:1046600018F8012B06EB860601EB4606A2F1300195
:104670000929F5D946E60896002840F0088443F059
:1046800010039E0600F14C83DD0600F1F38258060C
:1046900040F1F082079DB5F900602A46F717043211
:1046A000304639460792002871F10002C0F25D835E
:1046B000611C9DF837504FF001027FF4EAAE56EAD4
:1046C000070100F04D820293012A00F08C82022A39
:1046D00040F05C820B98CB46330906F00F0143EAA9
:1046E00007733A091E461746435C0BF8013D56EA2C
:1046F0000703F1D1A9EB0B030593E1E6002840F095
:10470000C083990600F16783DA0600F1F1805B0649
:1047100040F1EE80079A136804320792BDF80C202E
:104720001A80B8E507983D4A08960B9206687822E9
:10473000302104308DF8392043F002030790002720
:104740008DF8381002229CE60896002899D08DF842
:10475000375096E798F80020002D7FF4D1AD012066
:104760002025CDE543F0010398F80020C8E5089620
:10477000002840F0938329490B919F0600F1E882BD
:104780000798DE06014600F170825D0640F16D82F9
:104790000431068807910027D80740F1228256EAA3
:1047A000070100F01E8230218DF8392043F002030A
:1047B0008DF83810022264E60896002840F06B83DA
:1047C00017490B91D9E7079908960A688DF8482090
:1047D0004FF000000A468DF83700043201200190A6
:1047E000079205900DF1480B0293002470E643F008
:1047F000400398F8002083E598F800206C2A03BF56
:1048000098F8012043F0200308F1010843F0100359
:1048100076E500BF28684000386840000C6840001A
:10482000F867400007990E680A46002E02F104025C
:10483000FFF60FAE079298F8002061E598F8002087
:1048400001202B255CE507990896D1F800B04FF0C0
:1048500000028DF837200E1DBBF1000F00F0E5823D
:10486000671C00F0C482224600215846019301F0E3
:104870001FF9019B002800F0E582A0EB0B020592D6
:10488000079602939DF83750002419E698F8002007
:104890002A2A08F1010700F0E982A2F13001092972
:1048A000B8464FF000043FF62DAD18F8012B04EB8D
:1048B000840401EB4404A2F130010929F5D921E572
:1048C00043F0200398F800201AE50896002840F0ED
:1048D000DB82002A00F0E78001218DF848204FF0AC
:1048E000000201918DF8372005910DF1480B7BE70F
:1048F000079A136804320792039A1A60CBE40FAA4E
:1049000004992046FFF74AFC002840F039811099AD
:10491000119A01F1010CCE46FFE51099119A481C3D
:104920009DF83750002D3FF422AE01320DF13705CE
:104930000121072811921090CAF80050CAF80410FB
:1049400040F30881002A40F0BC81099B002B3FF412
:104950001FAE0EAB022208461C931D92CA460146AA
:104960000AF1080A01300A9B802B3FF419AE059B1F
:10497000E41A002C2EDD102CB34D1EDDD646102679
:10498000069FDDF810A006E0881C0EF1080E1946FF
:10499000103C102C10DD4B1C1032072B11928EE8AE
:1049A00060001093F0DD002A65D1103C102C4FF010
:1049B00001001146CE46EEDCF24622440728119251
:1049C000CAF80050CAF80440109000F385800AF13C
:1049D000080A01300599CAF800B00A440728119264
:1049E000CAF80410109040F38280002A40F0188129
:1049F000029B1092580735D5089B01995C1A002C30
:104A000040F3E780CA46102C40F3188210998F4E6D
:104A1000069FDDF810B0102506E0881C0AF1080A90
:104A20001946103C102C11DD4B1C1032072B119233
:104A3000CAF80060CAF804501093EEDD42BB103C87
:104A4000102C4FF001001146CA46EDDC2244072825
:104A50001192CAF80060CAF80440109051DD002A93
:104A600040F09B81039B089A01998A42ACBF9B1836
:104A70005B1803934EE00FAA51463846FFF78EFBB2
:104A8000002840F03F811099119A481CCE467FE7DC
:104A90000FAA59463846FFF781FB60B91099119A61
:104AA000481CCA46BDE7119BDDF810B0002B40F052
:104AB000D48100231093DBF8643013F0010FBBF8AE
:104AC0000C3002D19A0540F1DE805B063FF5B2ACB6
:104AD00003982DB0BDE8F08F002A40F00681059ABA
:104AE0001D9201231192CDF870B01093CA460AF1BD
:104AF000080A029B590704D5089B01995C1A002CEF
:104B000081DC039B089901988142ACBF5B181B189C
:104B1000039372BB00231093CA46FFF7BCBB0FAAD6
:104B200004992046FFF73AFB50BB1099119A01F106
:104B3000010ECC4648E5002A40F040819DF8371030
:104B4000002900F01B8101220DF1370110461D9252
:104B50001C91CA4601460AF1080A013007E5029B8A
:104B6000012A00F09880022A0DD102930026002726
:104B7000B0E50FAA04990698FFF710FB0028C9D0EA
:104B8000DDF810B097E7029300260027494600E0C1
:104B90005946F20842EA4772F80806F0070307464A
:104BA0001646303356EA070201F8013C01F1FF3B9B
:104BB000EED1029AD6077FF59DAD302B3FF49AAD2A
:104BC000023930230BF8013CA9EB010305938B4616
:104BD00076E4039B089A8A42ACBF9B185B18039348
:104BE00098E702224DE4002F08BF0A2E52D3CB468D
:104BF000304639460A22002301F0C6FB30320BF85A
:104C0000012D3046394600230A2201F0BDFB06463D
:104C10000F4656EA0703EBD16CE50594CB464FE40B
:104C20000FAA04990698FFF7B9FA0028A8D1119A9B
:104C3000CA465EE70FAA04990698FFF7AFFA002864
:104C40009ED1CA46FFF7C0BB3868400028684000C4
:104C50000431166807910122002712E407980146E3
:104C600004310668079100270BE40E6804310791B0
:104C7000002791E507990E680A46F7170432079254
:104C8000304639460FE5DBF8580000F07FFEBBF8F0
:104C90000C301AE7029B02930DF1B00B3036012362
:104CA0000BF8416D05930BE40FAA04990698FFF7E2
:104CB00075FA00287FF464AF1099119A481CCA460F
:104CC00051E60FAA04990698FFF768FA00287FF4C6
:104CD00057AF1099119A481CCA4648E4002A40F080
:104CE000918001201146CA4641E60FAA0499069810
:104CF000FFF754FA00287FF443AF1098119A01305F
:104D0000CA4667E6D346D6E6079E073626F0070270
:104D100002F10801D2E9006707910122FFF7B1BB58
:104D2000079E073626F00706D6E9000106F10802BD
:104D3000079206460F46B6E4079E073626F007029E
:104D400002F10801D2E9006707910022FFF799BB41
:104D5000079E073626F0070101F108000790D1E908
:104D6000006719E5CB46FFF7ABBB2D25764267EB15
:104D700047078DF837500122FFF788BB099BB3B96D
:104D800011460120CA46F2E5DBF8580000F0FEFDAE
:104D90004FF0FF330393FFF750BB0FAA0499069817
:104DA000FFF7FCF900287FF4EBAE119AA9E60EABF1
:104DB00002221C931D920120CA46D0E50FAA049935
:104DC0000698FFF7EBF900287FF4DAAE1099119AF4
:104DD000481CCA46A4E5079A03991368CD170846EC
:104DE000043229460792C3E90001FFF754BA584636
:104DF00007960293FFF764F9002405909DF8375059
:104E0000FFF75EBB0FAA04990698FFF7C7F90028C1
:104E10007FF4B6AE1099119A481CCA46A7E51099BE
:104E2000119A204E0131FFF790BB062C28BF0624B3
:104E3000059407960194DFF870B0D5E41098194EE8
:104E4000013003E605949DF8375007960293044617
:104E5000FFF736BB8646FFF7CEBB06980FAA59462A
:104E6000FFF79CF900283FF424AE24E6079998F850
:104E700001200C68043144EAE474B8460791FFF756
:104E80003FBA8DF837503CE48DF8375021E58DF866
:104E90003750FFF7F4BB8DF8375091E48DF8375059
:104EA00069E400BF28684000206840002DE9F04117
:104EB0000C46ADF58D6D8989666EE589199621F0F0
:104EC00002010646E069ADF80C1017464FF4806108
:104ED000626AADF80E5098461AAD0023079016A8E6
:104EE00009920693009504950291059100F048FD02
:104EF00043463A4669463046FFF790F9051E07DB00
:104F00003046694600F028F9002818BF4FF0FF35F9
:104F1000BDF80C305B0603D5A38943F04003A381A1
:104F2000169800F02FFD28460DF58D6DBDE8F08137
:104F300038B5304B1B6805460C4613B19A6B002AF6
:104F400038D0B4F90C2093B218070CD52069A8B159
:104F500013F001021ED0636900225B42A361A260CC
:104F6000F0B1002038BDD9063CD5580726D42069B9
:104F700042F00803A3819BB20028E9D103F4207218
:104F8000B2F5007FE4D02846214600F02FFDA3892A
:104F90002069DDE7990758BF6269A2600028E0D167
:104FA000B4F90C301A06DDD543F04003A3814FF06D
:104FB000FF3038BD184600F027F9C2E7216B51B128
:104FC00004F14003994204D0284600F043FAB4F9B2
:104FD0000C200023236300232069636022F0240255
:104FE0002060C5E742F0400209232B604FF0FF30FC
:104FF000A28138BD0C004020024B13B1024800F0E2
:1050000005B87047000000007952400000230146B7
:105010001A46184601F090B8B1F90C309AB22DE951
:10502000F0410D46110780463AD46A6843F40063A4
:10503000002AAB816FDDAC6A002C49D000229BB204
:10504000D8F80060C8F8002013F4805267D02A6DA9
:105050005F0705D569682B6B521A0BB1EB6BD21A3F
:105060000023E9694046A047441C3CD0B5F90C3008
:105070002A692A6023F400630022AB81DB046A60A2
:1050800047D4296BC8F8006011B305F14003994279
:1050900002D0404600F0DEF900202863BDE8F08130
:1050A0002E69AEB12C682E6091070CBF6B6900238E
:1050B000A41BAB600AE0234632466F6AE9694046AA
:1050C000B8470028A4EB0004064404DD002CF2DC01
:1050D0000020BDE8F081AB8943F04003AB814FF085
:1050E000FF30BDE8F081D8F800401D2CF3D8194BF3
:1050F000E340DB4313F00103EDD1B5F90C206B6005
:1051000022F400632969AB81DA042960B9D5002C47
:10511000B7D12865B5E7EA6B002A8CDCD8E7012314
:10512000E9694046A047431C024602D0AB89AC6AFD
:105130008EE7D8F80030002BF8D01D2B01D0162BAD
:1051400002D1C8F80060C3E7AB8943F04003AB81EC
:10515000BDE8F0810100402038B50D46044608B195
:10516000836BBBB1B5F90C0088B16B6EDB0701D462
:10517000810517D520462946FFF74EFF6B6EDA07EB
:10518000044602D4AB899B0507D5204638BD0446AA
:10519000204638BD00F038F8E4E7A86D00F0F6FBD3
:1051A000204638BDA86D00F0EFFBE3E7014900F0B1
:1051B000AFBB00BF2162400010B5002304468181CF
:1051C000C28103604360836043660361436183611E
:1051D000194608225C30FEF71DFE07480749084AB9
:1051E000084B2062E4616162A262E36204F158004C
:1051F000BDE8104000F0C4BB655F4000895F40001F
:10520000C55F4000E55F400010B50446124800F05D
:10521000BBFBA26BD2B904F53B731048C4F8E8326B
:105220000321C4F8E022E063C4F8E41260680421BA
:10523000FFF7C2FF01220921A068FFF7BDFF02228C
:105240001221E068FFF7B8FF0123A3630248BDE81D
:10525000104000F09BBB00BFC80C4020AD51400087
:10526000014800F091BB00BFDC0C4020014800F079
:105270008DBB00BFDC0C402038B50A4C0A4D641BC6
:10528000A4100AD004F18043013B05EB8305013CE7
:1052900055F804399847002CF9D1BDE8384001F0A1
:1052A00067BB00BF806940007C6940002DE9F04782
:1052B00082B080468946144600F054FB012836D05F
:1052C0004A4604F15C0301A9404600F0E7FE421C97
:1052D000064625D0A8B39DF804E000250DF1040A88
:1052E00009E023685A1C226083F800E00135B542CA
:1052F00027D215F80AE0A368013B002BA360F0DA7F
:10530000A769BB4271462246404602DBBEF10A0F46
:10531000E7D100F06BFE431CE8D102B0BDE8F08796
:10532000A38943F04003A38102B0BDE8F08709F1EF
:10533000FF33FE2BC4D85FFA89FE06468DF804E0E1
:10534000CBE7484602B0BDE8F08700BF30B5536EEA
:1053500013F0010FB2F90C30144683B005469AB22F
:1053600001D190051CD5900406D4626E43F400531D
:1053700042F40052A381626628462246FFF796FF58
:10538000636EDA07054602D4A3899B0502D5284639
:1053900003B030BDA06D00F0F9FA284603B030BD6F
:1053A000A06D019100F0F0FAB4F90C3001999AB2B5
:1053B000D9E700BFF8B5244F0C460646FEF778FD46
:1053C000BB685D68C4F57E610F3125F00305294493
:1053D00021F47F6121F00F01A1F58054B4F5805FC5
:1053E00007DB00213046FEF76FFDBB682B44984277
:1053F00004D03046FEF762FD0020F8BD6142304621
:10540000FEF762FD01300DD0104BBA6819682D1BF4
:1054100045F001053046091B55601960FEF74EFD49
:105420000120F8BD00213046FEF74EFDBA68831A10
:105430000F2BDEDD064C0549246843F00103001BF9
:1054400053600860D5E700BF38044020A00B40201F
:1054500040084020002944D02DE9F0410D46804607
:10546000FEF726FD55F8047C694927F00103A5F1F4
:105470000804E2188E685068B24220F003005ED043
:10548000FE0750600BD455F8087CE41B01F1080EB0
:10549000A56875453B446DD0E768EF60BD601518A1
:1054A0006D68ED073ED543F001026260E350B3F54D
:1054B000007F17D2DB08581C9A104D6851F83070E5
:1054C000A7600123934001EBC0022B43083AE2603E
:1054D0004B6041F83040FC604046BDE8F041FEF7CB
:1054E000EDBC70475A0A042A52D89A0902F13907CA
:1054F000FF0002F13805C819CA59083890424FD048
:10550000516821F003018B4232D292689042F7D168
:10551000C368A060E3609C60C4604046BDE8F041A1
:10552000FEF7CCBC95683B4FBD42034440D0D068E9
:10553000E86043F0010285606260E350B7E7FF076F
:10554000034407D455F8082CA41A1344A068E26851
:10555000C2609060304A126843F00100934260607C
:105560008C60B9D32D4B40461968FFF723FFB3E792
:105570001046CDE711184968C90744D49168D2682C
:10558000CA60034443F0010091606060E350A3E708
:10559000142A16D802F15C07FF0002F15B05AAE7A6
:1055A000AA1001234D6893402B434B600346B0E79C
:1055B00043F001024C610C61E560A5606260E3505C
:1055C0008AE7542A06D81A0B02F16F07FF0002F18E
:1055D0006E0590E7B2F5AA7F06D8DA0B02F17807DC
:1055E000FF0002F1770586E740F25450824206D868
:1055F0009A0C02F17D07FF0002F17C057BE74FF476
:105600007E777E2577E743F001016160136063E7F1
:10561000380440204004402044084020D00B402063
:105620009368002B73D02DE9F04F8B8983B00C4623
:1056300019070090164626D5226922B313F00200FE
:1056400035682CD04FF00009B04FC846B246B84577
:1056500043464A4628BF3B460098B8F1000F50D059
:10566000E169666AB047002858DDDAF808301B1A8D
:105670008144A8EB0008CAF80830002BE7D10020CD
:1056800003B0BDE8F08F21460098FFF751FC0028D9
:1056900040F03381A389356813F00200D2D113F0B2
:1056A000010945D14F46019637B39A05D4F80880D1
:1056B00040F183804745C346C0F0AB8013F4906F40
:1056C00040F0AC802068BA465A46494600F040FA9D
:1056D000A2682368A2EB08025B44A2602360019ADF
:1056E0009368A3EB0A03D144A7EB0A079360002B4E
:1056F000C5D0A389002FD8D1D5F800906F680835A0
:10570000D2E7D5F80090D5F8048008359FE700204F
:10571000704721460098FFF71FFD70B3B4F90C30B5
:1057200043F040034FF0FF30A38103B0BDE8F08F9A
:10573000814633464E46A8469A464D464EB380B300
:10574000206823696269B145CB4628BFB3469842B9
:105750005F4604D9A36813449B4500F3A680934594
:105760004BDB1346676AE16900982A46B847071E73
:10577000D4DDB9EB0709CCD00120DAF80830DB1B07
:105780003D44F61BCAF80830002B3FF478AF002EDA
:10579000D5D108F1080313E9600098460833002EBC
:1057A000F9D032460A21284600F082F9002800F09C
:1057B000A1800130A0EB0509C2E720682369984267
:1057C00002D863699F425DD2B84528BFB8464246B9
:1057D000494600F0BDF9A3682268A3EB08034244E0
:1057E000A36022600BB1C24679E721460098FFF71B
:1057F000B3FC002892D1C24671E75A46294600F010
:10580000A7F9A2682368A2EB0B025B44A2602360A5
:10581000AFE72068B846BA46BB4655E762692068DC
:10582000216902EB4208A0EB010A08EBD8780AF1E3
:1058300001004FEA680838444045424684BF80462C
:1058400042465B0544D511460098FDF799FF834613
:10585000002855D052462169FEF742FAA38923F465
:10586000906343F08003A3810BEB0A00A8EB0A03CB
:10587000C4F810B0C4F814802060A360B846BA46DB
:10588000BB4621E76FF00041B94228BF39464A467E
:1058900091FBF3F10098666A03FB01F3E169B047FD
:1058A000B0F1000A3FF71BAF38E71A4629460193CB
:1058B00000F04EF92268019B00981A4422602146AC
:1058C000FFF74AFC019B00287FF428AF1F4650E7F2
:1058D000009800F0A1F983460028C5D1009D2169F8
:1058E0002846FFF7B7FDB4F90C300C2223F08003F3
:1058F0002A6015E706F1010922E74FF0FF30BFE605
:10590000009A0C231360B4F90C3009E700FCFF7F08
:105910002DE9F84310F538771FD0884606464FF03A
:1059200000097D68BC68013D11D4A389012B05F1F4
:10593000FF3508D9B4F90E3001332146304602D084
:10594000C04749EA00096B1C04F16804EDD13F68C7
:10595000002FE6D14846BDE8F883B9464846BDE881
:10596000F88300BF044B054A1B685B6B002B08BF24
:10597000134693F8280170470C0040204C08402043
:10598000704700BF704700BF704700BF704700BF3F
:1059900070B50C46B1F90E10002990B015461E46A0
:1059A00014DB01AA00F09EFC00280FDB029A02F42F
:1059B0007042A2F50052B2FA82F252094FF48063AB
:1059C0004FF4006032602B6010B070BDA2890023DC
:1059D00012F08000336004D0402218462A6010B0D4
:1059E00070BD4FF480632B6010B070BD8A89920740
:1059F0000B4606D501F1430201211A601A61596173
:105A00007047F0B583B001AB6A460C460646FFF717
:105A1000BFFF009905463046FDF7B2FEB4F90C30E1
:105A2000D8B1019A154F0099F76343F08003A38121
:105A30002060206161611AB92B43A38103B0F0BDDE
:105A40003046B4F90E1000F061FCA0B1A38923F038
:105A5000030343F001031BB2EEE79A05EED423F0F3
:105A6000030304F1430243F002030121A3812260F6
:105A700022616161E2E7B4F90C30DDE7AD5140002D
:105A800082B049B15AB16BB113780B601278101C17
:105A900018BF012002B0704701A9002AF3D11046B7
:105AA00002B070476FF00100F4E700BF0000000093
:105AB00001F0FF01102A2BDB10F0070F08D010F8BF
:105AC000013B013A8B422DD010F0070F42B3F6D1C3
:105AD000F0B441EA012141EA014122F007047FF0DC
